{
  "_format": "hh-sol-artifact-1",
  "contractName": "Staking",
  "sourceName": "contracts/Staking.sol",
  "abi": [
    {
      "inputs": [
        {
          "internalType": "address",
          "name": "_stakingToken",
          "type": "address"
        },
        {
          "internalType": "address",
          "name": "_rewardToken",
          "type": "address"
        }
      ],
      "stateMutability": "nonpayable",
      "type": "constructor"
    },
    {
      "anonymous": false,
      "inputs": [
        {
          "indexed": true,
          "internalType": "address",
          "name": "user",
          "type": "address"
        },
        {
          "indexed": false,
          "internalType": "uint256",
          "name": "reward",
          "type": "uint256"
        }
      ],
      "name": "Compounded",
      "type": "event"
    },
    {
      "anonymous": false,
      "inputs": [
        {
          "indexed": true,
          "internalType": "address",
          "name": "previousOwner",
          "type": "address"
        },
        {
          "indexed": true,
          "internalType": "address",
          "name": "newOwner",
          "type": "address"
        }
      ],
      "name": "OwnershipTransferred",
      "type": "event"
    },
    {
      "anonymous": false,
      "inputs": [
        {
          "indexed": false,
          "internalType": "address",
          "name": "account",
          "type": "address"
        }
      ],
      "name": "Paused",
      "type": "event"
    },
    {
      "anonymous": false,
      "inputs": [
        {
          "indexed": false,
          "internalType": "uint256",
          "name": "rewardAmount",
          "type": "uint256"
        }
      ],
      "name": "RewardAdded",
      "type": "event"
    },
    {
      "anonymous": false,
      "inputs": [
        {
          "indexed": true,
          "internalType": "address",
          "name": "user",
          "type": "address"
        },
        {
          "indexed": false,
          "internalType": "uint256",
          "name": "reward",
          "type": "uint256"
        }
      ],
      "name": "RewardPaid",
      "type": "event"
    },
    {
      "anonymous": false,
      "inputs": [
        {
          "indexed": true,
          "internalType": "address",
          "name": "user",
          "type": "address"
        },
        {
          "indexed": false,
          "internalType": "uint256",
          "name": "amount",
          "type": "uint256"
        }
      ],
      "name": "Staked",
      "type": "event"
    },
    {
      "anonymous": false,
      "inputs": [
        {
          "indexed": false,
          "internalType": "address",
          "name": "account",
          "type": "address"
        }
      ],
      "name": "Unpaused",
      "type": "event"
    },
    {
      "anonymous": false,
      "inputs": [
        {
          "indexed": true,
          "internalType": "address",
          "name": "user",
          "type": "address"
        },
        {
          "indexed": false,
          "internalType": "uint256",
          "name": "amount",
          "type": "uint256"
        }
      ],
      "name": "Withdrawn",
      "type": "event"
    },
    {
      "inputs": [
        {
          "internalType": "address",
          "name": "",
          "type": "address"
        }
      ],
      "name": "balances",
      "outputs": [
        {
          "internalType": "uint256",
          "name": "",
          "type": "uint256"
        }
      ],
      "stateMutability": "view",
      "type": "function"
    },
    {
      "inputs": [],
      "name": "compoundRewards",
      "outputs": [],
      "stateMutability": "nonpayable",
      "type": "function"
    },
    {
      "inputs": [
        {
          "internalType": "address",
          "name": "account",
          "type": "address"
        }
      ],
      "name": "earned",
      "outputs": [
        {
          "internalType": "uint256",
          "name": "",
          "type": "uint256"
        }
      ],
      "stateMutability": "view",
      "type": "function"
    },
    {
      "inputs": [],
      "name": "getReward",
      "outputs": [],
      "stateMutability": "nonpayable",
      "type": "function"
    },
    {
      "inputs": [],
      "name": "lastUpdateBlock",
      "outputs": [
        {
          "internalType": "uint256",
          "name": "",
          "type": "uint256"
        }
      ],
      "stateMutability": "view",
      "type": "function"
    },
    {
      "inputs": [
        {
          "internalType": "uint256",
          "name": "rewardAmount",
          "type": "uint256"
        }
      ],
      "name": "notifyRewardAmount",
      "outputs": [],
      "stateMutability": "nonpayable",
      "type": "function"
    },
    {
      "inputs": [],
      "name": "owner",
      "outputs": [
        {
          "internalType": "address",
          "name": "",
          "type": "address"
        }
      ],
      "stateMutability": "view",
      "type": "function"
    },
    {
      "inputs": [],
      "name": "pause",
      "outputs": [],
      "stateMutability": "nonpayable",
      "type": "function"
    },
    {
      "inputs": [],
      "name": "paused",
      "outputs": [
        {
          "internalType": "bool",
          "name": "",
          "type": "bool"
        }
      ],
      "stateMutability": "view",
      "type": "function"
    },
    {
      "inputs": [],
      "name": "renounceOwnership",
      "outputs": [],
      "stateMutability": "nonpayable",
      "type": "function"
    },
    {
      "inputs": [],
      "name": "rewardPerToken",
      "outputs": [
        {
          "internalType": "uint256",
          "name": "",
          "type": "uint256"
        }
      ],
      "stateMutability": "view",
      "type": "function"
    },
    {
      "inputs": [],
      "name": "rewardPerTokenStored",
      "outputs": [
        {
          "internalType": "uint256",
          "name": "",
          "type": "uint256"
        }
      ],
      "stateMutability": "view",
      "type": "function"
    },
    {
      "inputs": [],
      "name": "rewardRate",
      "outputs": [
        {
          "internalType": "uint256",
          "name": "",
          "type": "uint256"
        }
      ],
      "stateMutability": "view",
      "type": "function"
    },
    {
      "inputs": [],
      "name": "rewardToken",
      "outputs": [
        {
          "internalType": "contract IERC20",
          "name": "",
          "type": "address"
        }
      ],
      "stateMutability": "view",
      "type": "function"
    },
    {
      "inputs": [
        {
          "internalType": "address",
          "name": "",
          "type": "address"
        }
      ],
      "name": "rewards",
      "outputs": [
        {
          "internalType": "uint256",
          "name": "",
          "type": "uint256"
        }
      ],
      "stateMutability": "view",
      "type": "function"
    },
    {
      "inputs": [
        {
          "internalType": "uint256",
          "name": "newRate",
          "type": "uint256"
        }
      ],
      "name": "setRewardRate",
      "outputs": [],
      "stateMutability": "nonpayable",
      "type": "function"
    },
    {
      "inputs": [
        {
          "internalType": "uint256",
          "name": "amount",
          "type": "uint256"
        }
      ],
      "name": "stake",
      "outputs": [],
      "stateMutability": "nonpayable",
      "type": "function"
    },
    {
      "inputs": [],
      "name": "stakingToken",
      "outputs": [
        {
          "internalType": "contract IERC20",
          "name": "",
          "type": "address"
        }
      ],
      "stateMutability": "view",
      "type": "function"
    },
    {
      "inputs": [],
      "name": "totalSupply",
      "outputs": [
        {
          "internalType": "uint256",
          "name": "",
          "type": "uint256"
        }
      ],
      "stateMutability": "view",
      "type": "function"
    },
    {
      "inputs": [
        {
          "internalType": "address",
          "name": "newOwner",
          "type": "address"
        }
      ],
      "name": "transferOwnership",
      "outputs": [],
      "stateMutability": "nonpayable",
      "type": "function"
    },
    {
      "inputs": [],
      "name": "unpause",
      "outputs": [],
      "stateMutability": "nonpayable",
      "type": "function"
    },
    {
      "inputs": [
        {
          "internalType": "address",
          "name": "",
          "type": "address"
        }
      ],
      "name": "userRewardPerTokenPaid",
      "outputs": [
        {
          "internalType": "uint256",
          "name": "",
          "type": "uint256"
        }
      ],
      "stateMutability": "view",
      "type": "function"
    },
    {
      "inputs": [
        {
          "internalType": "uint256",
          "name": "amount",
          "type": "uint256"
        }
      ],
      "name": "withdraw",
      "outputs": [],
      "stateMutability": "nonpayable",
      "type": "function"
    }
  ],
  "bytecode": "0x60806040526103e86004553480156200001757600080fd5b50604051620025883803806200258883398181016040528101906200003d91906200023f565b6200005d620000516200010960201b60201c565b6200011160201b60201c565b600180819055506000600260006101000a81548160ff02191690831515021790555081600260016101000a81548173ffffffffffffffffffffffffffffffffffffffff021916908373ffffffffffffffffffffffffffffffffffffffff16021790555080600360006101000a81548173ffffffffffffffffffffffffffffffffffffffff021916908373ffffffffffffffffffffffffffffffffffffffff160217905550505062000286565b600033905090565b60008060009054906101000a900473ffffffffffffffffffffffffffffffffffffffff169050816000806101000a81548173ffffffffffffffffffffffffffffffffffffffff021916908373ffffffffffffffffffffffffffffffffffffffff1602179055508173ffffffffffffffffffffffffffffffffffffffff168173ffffffffffffffffffffffffffffffffffffffff167f8be0079c531659141344cd1fd0a4f28419497f9722a3daafe3b4186f6b6457e060405160405180910390a35050565b600080fd5b600073ffffffffffffffffffffffffffffffffffffffff82169050919050565b60006200020782620001da565b9050919050565b6200021981620001fa565b81146200022557600080fd5b50565b60008151905062000239816200020e565b92915050565b60008060408385031215620002595762000258620001d5565b5b6000620002698582860162000228565b92505060206200027c8582860162000228565b9150509250929050565b6122f280620002966000396000f3fe608060405234801561001057600080fd5b506004361061014c5760003560e01c80637b0a47ee116100c3578063a694fc3a1161007c578063a694fc3a14610341578063c00c9f7f1461035d578063cd3daf9d14610367578063df136d6514610385578063f2fde38b146103a3578063f7c618c1146103bf5761014c565b80637b0a47ee146102915780638456cb59146102af5780638b876347146102b95780638da5cb5b146102e95780639e447fc614610307578063a218141b146103235761014c565b80633c6b16ab116101155780633c6b16ab1461021b5780633d18b912146102375780633f4ba83a146102415780635c975abb1461024b578063715018a61461026957806372f702f3146102735761014c565b80628cc262146101515780630700037d1461018157806318160ddd146101b157806327e235e3146101cf5780632e1a7d4d146101ff575b600080fd5b61016b60048036038101906101669190611843565b6103dd565b6040516101789190611889565b60405180910390f35b61019b60048036038101906101969190611843565b6104df565b6040516101a89190611889565b60405180910390f35b6101b96104f7565b6040516101c69190611889565b60405180910390f35b6101e960048036038101906101e49190611843565b61059a565b6040516101f69190611889565b60405180910390f35b610219600480360381019061021491906118d0565b6105b2565b005b610235600480360381019061023091906118d0565b6108be565b005b61023f610ace565b005b610249610d8b565b005b610253610d9d565b6040516102609190611918565b60405180910390f35b610271610db4565b005b61027b610dc8565b6040516102889190611992565b60405180910390f35b610299610dee565b6040516102a69190611889565b60405180910390f35b6102b7610df4565b005b6102d360048036038101906102ce9190611843565b610e06565b6040516102e09190611889565b60405180910390f35b6102f1610e1e565b6040516102fe91906119bc565b60405180910390f35b610321600480360381019061031c91906118d0565b610e47565b005b61032b610f03565b6040516103389190611889565b60405180910390f35b61035b600480360381019061035691906118d0565b610f09565b005b610365611195565b005b61036f6113c9565b60405161037c9190611889565b60405180910390f35b61038d611436565b60405161039a9190611889565b60405180910390f35b6103bd60048036038101906103b89190611843565b61143c565b005b6103c76114bf565b6040516103d49190611992565b60405180910390f35b6000600860008373ffffffffffffffffffffffffffffffffffffffff1673ffffffffffffffffffffffffffffffffffffffff16815260200190815260200160002054670de0b6b3a7640000600760008573ffffffffffffffffffffffffffffffffffffffff1673ffffffffffffffffffffffffffffffffffffffff168152602001908152602001600020546104706113c9565b61047a9190611a06565b600960008673ffffffffffffffffffffffffffffffffffffffff1673ffffffffffffffffffffffffffffffffffffffff168152602001908152602001600020546104c49190611a3a565b6104ce9190611aab565b6104d89190611adc565b9050919050565b60086020528060005260406000206000915090505481565b6000600260019054906101000a900473ffffffffffffffffffffffffffffffffffffffff1673ffffffffffffffffffffffffffffffffffffffff166370a08231306040518263ffffffff1660e01b815260040161055491906119bc565b602060405180830381865afa158015610571573d6000803e3d6000fd5b505050506040513d601f19601f820116820180604052508101906105959190611b25565b905090565b60096020528060005260406000206000915090505481565b6105ba6114e5565b6105c2611534565b336105cb6113c9565b600681905550436005819055506105e1816103dd565b600860008373ffffffffffffffffffffffffffffffffffffffff1673ffffffffffffffffffffffffffffffffffffffff16815260200190815260200160002081905550600654600760008373ffffffffffffffffffffffffffffffffffffffff1673ffffffffffffffffffffffffffffffffffffffff16815260200190815260200160002081905550600082116106ad576040517f08c379a00000000000000000000000000000000000000000000000000000000081526004016106a490611baf565b60405180910390fd5b81600960003373ffffffffffffffffffffffffffffffffffffffff1673ffffffffffffffffffffffffffffffffffffffff16815260200190815260200160002054101561072f576040517f08c379a000000000000000000000000000000000000000000000000000000000815260040161072690611c1b565b60405180910390fd5b81600960003373ffffffffffffffffffffffffffffffffffffffff1673ffffffffffffffffffffffffffffffffffffffff168152602001908152602001600020600082825461077e9190611a06565b92505081905550600260019054906101000a900473ffffffffffffffffffffffffffffffffffffffff1673ffffffffffffffffffffffffffffffffffffffff1663a9059cbb33846040518363ffffffff1660e01b81526004016107e2929190611c3b565b6020604051808303816000875af1158015610801573d6000803e3d6000fd5b505050506040513d601f19601f820116820180604052508101906108259190611c90565b610864576040517f08c379a000000000000000000000000000000000000000000000000000000000815260040161085b90611d09565b60405180910390fd5b3373ffffffffffffffffffffffffffffffffffffffff167f7084f5476618d8e60b11ef0d7d3f06914655adb8793e28ff7f018d4c76d505d5836040516108aa9190611889565b60405180910390a2506108bb61157e565b50565b6108c6611587565b60006108d06113c9565b600681905550436005819055506108e6816103dd565b600860008373ffffffffffffffffffffffffffffffffffffffff1673ffffffffffffffffffffffffffffffffffffffff16815260200190815260200160002081905550600654600760008373ffffffffffffffffffffffffffffffffffffffff1673ffffffffffffffffffffffffffffffffffffffff16815260200190815260200160002081905550600082116109b2576040517f08c379a00000000000000000000000000000000000000000000000000000000081526004016109a990611d9b565b60405180910390fd5b600360009054906101000a900473ffffffffffffffffffffffffffffffffffffffff1673ffffffffffffffffffffffffffffffffffffffff166323b872dd3330856040518463ffffffff1660e01b8152600401610a1193929190611dbb565b6020604051808303816000875af1158015610a30573d6000803e3d6000fd5b505050506040513d601f19601f82011682018060405250810190610a549190611c90565b610a93576040517f08c379a0000000000000000000000000000000000000000000000000000000008152600401610a8a90611e3e565b60405180910390fd5b7fde88a922e0d3b88b24e9623efeb464919c6bf9f66857a65e2bfcf2ce87a9433d82604051610ac29190611889565b60405180910390a15050565b610ad66114e5565b610ade611534565b33610ae76113c9565b60068190555043600581905550610afd816103dd565b600860008373ffffffffffffffffffffffffffffffffffffffff1673ffffffffffffffffffffffffffffffffffffffff16815260200190815260200160002081905550600654600760008373ffffffffffffffffffffffffffffffffffffffff1673ffffffffffffffffffffffffffffffffffffffff168152602001908152602001600020819055506000600860003373ffffffffffffffffffffffffffffffffffffffff1673ffffffffffffffffffffffffffffffffffffffff16815260200190815260200160002054905060008111610c0d576040517f08c379a0000000000000000000000000000000000000000000000000000000008152600401610c0490611eaa565b60405180910390fd5b6000600860003373ffffffffffffffffffffffffffffffffffffffff1673ffffffffffffffffffffffffffffffffffffffff16815260200190815260200160002081905550600360009054906101000a900473ffffffffffffffffffffffffffffffffffffffff1673ffffffffffffffffffffffffffffffffffffffff1663a9059cbb33836040518363ffffffff1660e01b8152600401610caf929190611c3b565b6020604051808303816000875af1158015610cce573d6000803e3d6000fd5b505050506040513d601f19601f82011682018060405250810190610cf29190611c90565b610d31576040517f08c379a0000000000000000000000000000000000000000000000000000000008152600401610d2890611f16565b60405180910390fd5b3373ffffffffffffffffffffffffffffffffffffffff167fe2403640ba68fed3a2f88b7557551d1993f84b99bb10ff833f0cf8db0c5e048682604051610d779190611889565b60405180910390a25050610d8961157e565b565b610d93611587565b610d9b611605565b565b6000600260009054906101000a900460ff16905090565b610dbc611587565b610dc66000611668565b565b600260019054906101000a900473ffffffffffffffffffffffffffffffffffffffff1681565b60045481565b610dfc611587565b610e0461172c565b565b60076020528060005260406000206000915090505481565b60008060009054906101000a900473ffffffffffffffffffffffffffffffffffffffff16905090565b610e4f611587565b6000610e596113c9565b60068190555043600581905550610e6f816103dd565b600860008373ffffffffffffffffffffffffffffffffffffffff1673ffffffffffffffffffffffffffffffffffffffff16815260200190815260200160002081905550600654600760008373ffffffffffffffffffffffffffffffffffffffff1673ffffffffffffffffffffffffffffffffffffffff16815260200190815260200160002081905550816004819055505050565b60055481565b610f116114e5565b610f19611534565b33610f226113c9565b60068190555043600581905550610f38816103dd565b600860008373ffffffffffffffffffffffffffffffffffffffff1673ffffffffffffffffffffffffffffffffffffffff16815260200190815260200160002081905550600654600760008373ffffffffffffffffffffffffffffffffffffffff1673ffffffffffffffffffffffffffffffffffffffff1681526020019081526020016000208190555060008211611004576040517f08c379a0000000000000000000000000000000000000000000000000000000008152600401610ffb90611f82565b60405180910390fd5b81600960003373ffffffffffffffffffffffffffffffffffffffff1673ffffffffffffffffffffffffffffffffffffffff16815260200190815260200160002060008282546110539190611adc565b92505081905550600260019054906101000a900473ffffffffffffffffffffffffffffffffffffffff1673ffffffffffffffffffffffffffffffffffffffff166323b872dd3330856040518463ffffffff1660e01b81526004016110b993929190611dbb565b6020604051808303816000875af11580156110d8573d6000803e3d6000fd5b505050506040513d601f19601f820116820180604052508101906110fc9190611c90565b61113b576040517f08c379a000000000000000000000000000000000000000000000000000000000815260040161113290611fee565b60405180910390fd5b3373ffffffffffffffffffffffffffffffffffffffff167f9e71bc8eea02a63969f509818f2dafb9254532904319f9dbda79b67bd34a5f3d836040516111819190611889565b60405180910390a25061119261157e565b50565b61119d6114e5565b6111a5611534565b336111ae6113c9565b600681905550436005819055506111c4816103dd565b600860008373ffffffffffffffffffffffffffffffffffffffff1673ffffffffffffffffffffffffffffffffffffffff16815260200190815260200160002081905550600654600760008373ffffffffffffffffffffffffffffffffffffffff1673ffffffffffffffffffffffffffffffffffffffff168152602001908152602001600020819055506000600860003373ffffffffffffffffffffffffffffffffffffffff1673ffffffffffffffffffffffffffffffffffffffff168152602001908152602001600020549050600081116112d4576040517f08c379a00000000000000000000000000000000000000000000000000000000081526004016112cb9061205a565b60405180910390fd5b6000600860003373ffffffffffffffffffffffffffffffffffffffff1673ffffffffffffffffffffffffffffffffffffffff1681526020019081526020016000208190555080600960003373ffffffffffffffffffffffffffffffffffffffff1673ffffffffffffffffffffffffffffffffffffffff16815260200190815260200160002060008282546113689190611adc565b925050819055503373ffffffffffffffffffffffffffffffffffffffff167fc16de066392da7e40ceccb739c331fc48a2e76bf147449613c48023d960eec32826040516113b59190611889565b60405180910390a250506113c761157e565b565b6000806113d46104f7565b036113e3576006549050611433565b6113eb6104f7565b670de0b6b3a7640000600454600554436114059190611a06565b61140f9190611a3a565b6114199190611a3a565b6114239190611aab565b6006546114309190611adc565b90505b90565b60065481565b611444611587565b600073ffffffffffffffffffffffffffffffffffffffff168173ffffffffffffffffffffffffffffffffffffffff16036114b3576040517f08c379a00000000000000000000000000000000000000000000000000000000081526004016114aa906120ec565b60405180910390fd5b6114bc81611668565b50565b600360009054906101000a900473ffffffffffffffffffffffffffffffffffffffff1681565b60026001540361152a576040517f08c379a000000000000000000000000000000000000000000000000000000000815260040161152190612158565b60405180910390fd5b6002600181905550565b61153c610d9d565b1561157c576040517f08c379a0000000000000000000000000000000000000000000000000000000008152600401611573906121c4565b60405180910390fd5b565b60018081905550565b61158f61178f565b73ffffffffffffffffffffffffffffffffffffffff166115ad610e1e565b73ffffffffffffffffffffffffffffffffffffffff1614611603576040517f08c379a00000000000000000000000000000000000000000000000000000000081526004016115fa90612230565b60405180910390fd5b565b61160d611797565b6000600260006101000a81548160ff0219169083151502179055507f5db9ee0a495bf2e6ff9c91a7834c1ba4fdd244a5e8aa4e537bd38aeae4b073aa61165161178f565b60405161165e91906119bc565b60405180910390a1565b60008060009054906101000a900473ffffffffffffffffffffffffffffffffffffffff169050816000806101000a81548173ffffffffffffffffffffffffffffffffffffffff021916908373ffffffffffffffffffffffffffffffffffffffff1602179055508173ffffffffffffffffffffffffffffffffffffffff168173ffffffffffffffffffffffffffffffffffffffff167f8be0079c531659141344cd1fd0a4f28419497f9722a3daafe3b4186f6b6457e060405160405180910390a35050565b611734611534565b6001600260006101000a81548160ff0219169083151502179055507f62e78cea01bee320cd4e420270b5ea74000d11b0c9f74754ebdbfc544b05a25861177861178f565b60405161178591906119bc565b60405180910390a1565b600033905090565b61179f610d9d565b6117de576040517f08c379a00000000000000000000000000000000000000000000000000000000081526004016117d59061229c565b60405180910390fd5b565b600080fd5b600073ffffffffffffffffffffffffffffffffffffffff82169050919050565b6000611810826117e5565b9050919050565b61182081611805565b811461182b57600080fd5b50565b60008135905061183d81611817565b92915050565b600060208284031215611859576118586117e0565b5b60006118678482850161182e565b91505092915050565b6000819050919050565b61188381611870565b82525050565b600060208201905061189e600083018461187a565b92915050565b6118ad81611870565b81146118b857600080fd5b50565b6000813590506118ca816118a4565b92915050565b6000602082840312156118e6576118e56117e0565b5b60006118f4848285016118bb565b91505092915050565b60008115159050919050565b611912816118fd565b82525050565b600060208201905061192d6000830184611909565b92915050565b6000819050919050565b600061195861195361194e846117e5565b611933565b6117e5565b9050919050565b600061196a8261193d565b9050919050565b600061197c8261195f565b9050919050565b61198c81611971565b82525050565b60006020820190506119a76000830184611983565b92915050565b6119b681611805565b82525050565b60006020820190506119d160008301846119ad565b92915050565b7f4e487b7100000000000000000000000000000000000000000000000000000000600052601160045260246000fd5b6000611a1182611870565b9150611a1c83611870565b9250828203905081811115611a3457611a336119d7565b5b92915050565b6000611a4582611870565b9150611a5083611870565b9250828202611a5e81611870565b91508282048414831517611a7557611a746119d7565b5b5092915050565b7f4e487b7100000000000000000000000000000000000000000000000000000000600052601260045260246000fd5b6000611ab682611870565b9150611ac183611870565b925082611ad157611ad0611a7c565b5b828204905092915050565b6000611ae782611870565b9150611af283611870565b9250828201905080821115611b0a57611b096119d7565b5b92915050565b600081519050611b1f816118a4565b92915050565b600060208284031215611b3b57611b3a6117e0565b5b6000611b4984828501611b10565b91505092915050565b600082825260208201905092915050565b7f43616e6e6f742077697468647261772030000000000000000000000000000000600082015250565b6000611b99601183611b52565b9150611ba482611b63565b602082019050919050565b60006020820190508181036000830152611bc881611b8c565b9050919050565b7f496e73756666696369656e742062616c616e6365000000000000000000000000600082015250565b6000611c05601483611b52565b9150611c1082611bcf565b602082019050919050565b60006020820190508181036000830152611c3481611bf8565b9050919050565b6000604082019050611c5060008301856119ad565b611c5d602083018461187a565b9392505050565b611c6d816118fd565b8114611c7857600080fd5b50565b600081519050611c8a81611c64565b92915050565b600060208284031215611ca657611ca56117e0565b5b6000611cb484828501611c7b565b91505092915050565b7f5769746864726177207472616e73666572206661696c65640000000000000000600082015250565b6000611cf3601883611b52565b9150611cfe82611cbd565b602082019050919050565b60006020820190508181036000830152611d2281611ce6565b9050919050565b7f52657761726420616d6f756e742073686f756c6420626520677265617465722060008201527f7468616e20300000000000000000000000000000000000000000000000000000602082015250565b6000611d85602683611b52565b9150611d9082611d29565b604082019050919050565b60006020820190508181036000830152611db481611d78565b9050919050565b6000606082019050611dd060008301866119ad565b611ddd60208301856119ad565b611dea604083018461187a565b949350505050565b7f5472616e73666572206661696c65640000000000000000000000000000000000600082015250565b6000611e28600f83611b52565b9150611e3382611df2565b602082019050919050565b60006020820190508181036000830152611e5781611e1b565b9050919050565b7f4e6f2072657761726420617661696c61626c6500000000000000000000000000600082015250565b6000611e94601383611b52565b9150611e9f82611e5e565b602082019050919050565b60006020820190508181036000830152611ec381611e87565b9050919050565b7f526577617264207472616e73666572206661696c656400000000000000000000600082015250565b6000611f00601683611b52565b9150611f0b82611eca565b602082019050919050565b60006020820190508181036000830152611f2f81611ef3565b9050919050565b7f43616e6e6f74207374616b652030000000000000000000000000000000000000600082015250565b6000611f6c600e83611b52565b9150611f7782611f36565b602082019050919050565b60006020820190508181036000830152611f9b81611f5f565b9050919050565b7f5374616b65207472616e73666572206661696c65640000000000000000000000600082015250565b6000611fd8601583611b52565b9150611fe382611fa2565b602082019050919050565b6000602082019050818103600083015261200781611fcb565b9050919050565b7f4e6f2072657761726420617661696c61626c6520746f20636f6d706f756e6400600082015250565b6000612044601f83611b52565b915061204f8261200e565b602082019050919050565b6000602082019050818103600083015261207381612037565b9050919050565b7f4f776e61626c653a206e6577206f776e657220697320746865207a65726f206160008201527f6464726573730000000000000000000000000000000000000000000000000000602082015250565b60006120d6602683611b52565b91506120e18261207a565b604082019050919050565b60006020820190508181036000830152612105816120c9565b9050919050565b7f5265656e7472616e637947756172643a207265656e7472616e742063616c6c00600082015250565b6000612142601f83611b52565b915061214d8261210c565b602082019050919050565b6000602082019050818103600083015261217181612135565b9050919050565b7f5061757361626c653a2070617573656400000000000000000000000000000000600082015250565b60006121ae601083611b52565b91506121b982612178565b602082019050919050565b600060208201905081810360008301526121dd816121a1565b9050919050565b7f4f776e61626c653a2063616c6c6572206973206e6f7420746865206f776e6572600082015250565b600061221a602083611b52565b9150612225826121e4565b602082019050919050565b600060208201905081810360008301526122498161220d565b9050919050565b7f5061757361626c653a206e6f7420706175736564000000000000000000000000600082015250565b6000612286601483611b52565b915061229182612250565b602082019050919050565b600060208201905081810360008301526122b581612279565b905091905056fea264697066735822122038abc9f872f70467f566f0df3752750da3ec675d5d4dac1f9a74bc059ee8899864736f6c63430008180033",
  "linkReferences": {},
  "deployedLinkReferences": {}
}