{
  "_format": "hh-sol-artifact-1",
  "contractName": "Staking",
  "sourceName": "contracts/Staking.sol",
  "abi": [
    {
      "inputs": [
        {
          "internalType": "address",
          "name": "_stakingToken",
          "type": "address"
        },
        {
          "internalType": "address",
          "name": "_rewardToken",
          "type": "address"
        }
      ],
      "stateMutability": "nonpayable",
      "type": "constructor"
    },
    {
      "anonymous": false,
      "inputs": [
        {
          "indexed": true,
          "internalType": "address",
          "name": "user",
          "type": "address"
        },
        {
          "indexed": false,
          "internalType": "uint256",
          "name": "reward",
          "type": "uint256"
        },
        {
          "indexed": false,
          "internalType": "uint256",
          "name": "timestamp",
          "type": "uint256"
        }
      ],
      "name": "Compounded",
      "type": "event"
    },
    {
      "anonymous": false,
      "inputs": [
        {
          "indexed": true,
          "internalType": "address",
          "name": "previousOwner",
          "type": "address"
        },
        {
          "indexed": true,
          "internalType": "address",
          "name": "newOwner",
          "type": "address"
        }
      ],
      "name": "OwnershipTransferred",
      "type": "event"
    },
    {
      "anonymous": false,
      "inputs": [
        {
          "indexed": false,
          "internalType": "address",
          "name": "account",
          "type": "address"
        }
      ],
      "name": "Paused",
      "type": "event"
    },
    {
      "anonymous": false,
      "inputs": [
        {
          "indexed": false,
          "internalType": "uint256",
          "name": "rewardAmount",
          "type": "uint256"
        }
      ],
      "name": "RewardAdded",
      "type": "event"
    },
    {
      "anonymous": false,
      "inputs": [
        {
          "indexed": true,
          "internalType": "address",
          "name": "user",
          "type": "address"
        },
        {
          "indexed": false,
          "internalType": "uint256",
          "name": "reward",
          "type": "uint256"
        },
        {
          "indexed": false,
          "internalType": "uint256",
          "name": "timestamp",
          "type": "uint256"
        }
      ],
      "name": "RewardPaid",
      "type": "event"
    },
    {
      "anonymous": false,
      "inputs": [
        {
          "indexed": true,
          "internalType": "address",
          "name": "user",
          "type": "address"
        },
        {
          "indexed": false,
          "internalType": "uint256",
          "name": "amount",
          "type": "uint256"
        },
        {
          "indexed": false,
          "internalType": "uint256",
          "name": "timestamp",
          "type": "uint256"
        }
      ],
      "name": "Staked",
      "type": "event"
    },
    {
      "anonymous": false,
      "inputs": [
        {
          "indexed": false,
          "internalType": "address",
          "name": "account",
          "type": "address"
        }
      ],
      "name": "Unpaused",
      "type": "event"
    },
    {
      "anonymous": false,
      "inputs": [
        {
          "indexed": true,
          "internalType": "address",
          "name": "user",
          "type": "address"
        },
        {
          "indexed": false,
          "internalType": "uint256",
          "name": "amount",
          "type": "uint256"
        },
        {
          "indexed": false,
          "internalType": "uint256",
          "name": "timestamp",
          "type": "uint256"
        }
      ],
      "name": "Withdrawn",
      "type": "event"
    },
    {
      "inputs": [
        {
          "internalType": "address",
          "name": "",
          "type": "address"
        }
      ],
      "name": "balances",
      "outputs": [
        {
          "internalType": "uint256",
          "name": "",
          "type": "uint256"
        }
      ],
      "stateMutability": "view",
      "type": "function"
    },
    {
      "inputs": [],
      "name": "compoundRewards",
      "outputs": [],
      "stateMutability": "nonpayable",
      "type": "function"
    },
    {
      "inputs": [
        {
          "internalType": "address",
          "name": "account",
          "type": "address"
        }
      ],
      "name": "earned",
      "outputs": [
        {
          "internalType": "uint256",
          "name": "",
          "type": "uint256"
        }
      ],
      "stateMutability": "view",
      "type": "function"
    },
    {
      "inputs": [],
      "name": "getReward",
      "outputs": [],
      "stateMutability": "nonpayable",
      "type": "function"
    },
    {
      "inputs": [],
      "name": "lastUpdateBlock",
      "outputs": [
        {
          "internalType": "uint256",
          "name": "",
          "type": "uint256"
        }
      ],
      "stateMutability": "view",
      "type": "function"
    },
    {
      "inputs": [
        {
          "internalType": "uint256",
          "name": "rewardAmount",
          "type": "uint256"
        }
      ],
      "name": "notifyRewardAmount",
      "outputs": [],
      "stateMutability": "nonpayable",
      "type": "function"
    },
    {
      "inputs": [],
      "name": "owner",
      "outputs": [
        {
          "internalType": "address",
          "name": "",
          "type": "address"
        }
      ],
      "stateMutability": "view",
      "type": "function"
    },
    {
      "inputs": [],
      "name": "pause",
      "outputs": [],
      "stateMutability": "nonpayable",
      "type": "function"
    },
    {
      "inputs": [],
      "name": "paused",
      "outputs": [
        {
          "internalType": "bool",
          "name": "",
          "type": "bool"
        }
      ],
      "stateMutability": "view",
      "type": "function"
    },
    {
      "inputs": [],
      "name": "renounceOwnership",
      "outputs": [],
      "stateMutability": "nonpayable",
      "type": "function"
    },
    {
      "inputs": [],
      "name": "rewardPerToken",
      "outputs": [
        {
          "internalType": "uint256",
          "name": "",
          "type": "uint256"
        }
      ],
      "stateMutability": "view",
      "type": "function"
    },
    {
      "inputs": [],
      "name": "rewardPerTokenStored",
      "outputs": [
        {
          "internalType": "uint256",
          "name": "",
          "type": "uint256"
        }
      ],
      "stateMutability": "view",
      "type": "function"
    },
    {
      "inputs": [],
      "name": "rewardRate",
      "outputs": [
        {
          "internalType": "uint256",
          "name": "",
          "type": "uint256"
        }
      ],
      "stateMutability": "view",
      "type": "function"
    },
    {
      "inputs": [],
      "name": "rewardToken",
      "outputs": [
        {
          "internalType": "contract IERC20",
          "name": "",
          "type": "address"
        }
      ],
      "stateMutability": "view",
      "type": "function"
    },
    {
      "inputs": [
        {
          "internalType": "address",
          "name": "",
          "type": "address"
        }
      ],
      "name": "rewards",
      "outputs": [
        {
          "internalType": "uint256",
          "name": "",
          "type": "uint256"
        }
      ],
      "stateMutability": "view",
      "type": "function"
    },
    {
      "inputs": [
        {
          "internalType": "uint256",
          "name": "newRate",
          "type": "uint256"
        }
      ],
      "name": "setRewardRate",
      "outputs": [],
      "stateMutability": "nonpayable",
      "type": "function"
    },
    {
      "inputs": [
        {
          "internalType": "uint256",
          "name": "amount",
          "type": "uint256"
        }
      ],
      "name": "stake",
      "outputs": [],
      "stateMutability": "nonpayable",
      "type": "function"
    },
    {
      "inputs": [],
      "name": "stakingToken",
      "outputs": [
        {
          "internalType": "contract IERC20",
          "name": "",
          "type": "address"
        }
      ],
      "stateMutability": "view",
      "type": "function"
    },
    {
      "inputs": [],
      "name": "totalSupply",
      "outputs": [
        {
          "internalType": "uint256",
          "name": "",
          "type": "uint256"
        }
      ],
      "stateMutability": "view",
      "type": "function"
    },
    {
      "inputs": [
        {
          "internalType": "address",
          "name": "newOwner",
          "type": "address"
        }
      ],
      "name": "transferOwnership",
      "outputs": [],
      "stateMutability": "nonpayable",
      "type": "function"
    },
    {
      "inputs": [],
      "name": "unpause",
      "outputs": [],
      "stateMutability": "nonpayable",
      "type": "function"
    },
    {
      "inputs": [
        {
          "internalType": "address",
          "name": "",
          "type": "address"
        }
      ],
      "name": "userRewardPerTokenPaid",
      "outputs": [
        {
          "internalType": "uint256",
          "name": "",
          "type": "uint256"
        }
      ],
      "stateMutability": "view",
      "type": "function"
    },
    {
      "inputs": [
        {
          "internalType": "uint256",
          "name": "amount",
          "type": "uint256"
        }
      ],
      "name": "withdraw",
      "outputs": [],
      "stateMutability": "nonpayable",
      "type": "function"
    }
  ],
  "bytecode": "0x60806040526103e86004553480156200001757600080fd5b50604051620025b9380380620025b983398181016040528101906200003d91906200023f565b6200005d620000516200010960201b60201c565b6200011160201b60201c565b600180819055506000600260006101000a81548160ff02191690831515021790555081600260016101000a81548173ffffffffffffffffffffffffffffffffffffffff021916908373ffffffffffffffffffffffffffffffffffffffff16021790555080600360006101000a81548173ffffffffffffffffffffffffffffffffffffffff021916908373ffffffffffffffffffffffffffffffffffffffff160217905550505062000286565b600033905090565b60008060009054906101000a900473ffffffffffffffffffffffffffffffffffffffff169050816000806101000a81548173ffffffffffffffffffffffffffffffffffffffff021916908373ffffffffffffffffffffffffffffffffffffffff1602179055508173ffffffffffffffffffffffffffffffffffffffff168173ffffffffffffffffffffffffffffffffffffffff167f8be0079c531659141344cd1fd0a4f28419497f9722a3daafe3b4186f6b6457e060405160405180910390a35050565b600080fd5b600073ffffffffffffffffffffffffffffffffffffffff82169050919050565b60006200020782620001da565b9050919050565b6200021981620001fa565b81146200022557600080fd5b50565b60008151905062000239816200020e565b92915050565b60008060408385031215620002595762000258620001d5565b5b6000620002698582860162000228565b92505060206200027c8582860162000228565b9150509250929050565b61232380620002966000396000f3fe608060405234801561001057600080fd5b506004361061014c5760003560e01c80637b0a47ee116100c3578063a694fc3a1161007c578063a694fc3a14610341578063c00c9f7f1461035d578063cd3daf9d14610367578063df136d6514610385578063f2fde38b146103a3578063f7c618c1146103bf5761014c565b80637b0a47ee146102915780638456cb59146102af5780638b876347146102b95780638da5cb5b146102e95780639e447fc614610307578063a218141b146103235761014c565b80633c6b16ab116101155780633c6b16ab1461021b5780633d18b912146102375780633f4ba83a146102415780635c975abb1461024b578063715018a61461026957806372f702f3146102735761014c565b80628cc262146101515780630700037d1461018157806318160ddd146101b157806327e235e3146101cf5780632e1a7d4d146101ff575b600080fd5b61016b6004803603810190610166919061184b565b6103dd565b6040516101789190611891565b60405180910390f35b61019b6004803603810190610196919061184b565b6104df565b6040516101a89190611891565b60405180910390f35b6101b96104f7565b6040516101c69190611891565b60405180910390f35b6101e960048036038101906101e4919061184b565b61059a565b6040516101f69190611891565b60405180910390f35b610219600480360381019061021491906118d8565b6105b2565b005b610235600480360381019061023091906118d8565b6108c0565b005b61023f610ad0565b005b610249610d8f565b005b610253610da1565b6040516102609190611920565b60405180910390f35b610271610db8565b005b61027b610dcc565b604051610288919061199a565b60405180910390f35b610299610df2565b6040516102a69190611891565b60405180910390f35b6102b7610df8565b005b6102d360048036038101906102ce919061184b565b610e0a565b6040516102e09190611891565b60405180910390f35b6102f1610e22565b6040516102fe91906119c4565b60405180910390f35b610321600480360381019061031c91906118d8565b610e4b565b005b61032b610f07565b6040516103389190611891565b60405180910390f35b61035b600480360381019061035691906118d8565b610f0d565b005b61036561119b565b005b61036f6113d1565b60405161037c9190611891565b60405180910390f35b61038d61143e565b60405161039a9190611891565b60405180910390f35b6103bd60048036038101906103b8919061184b565b611444565b005b6103c76114c7565b6040516103d4919061199a565b60405180910390f35b6000600860008373ffffffffffffffffffffffffffffffffffffffff1673ffffffffffffffffffffffffffffffffffffffff16815260200190815260200160002054670de0b6b3a7640000600760008573ffffffffffffffffffffffffffffffffffffffff1673ffffffffffffffffffffffffffffffffffffffff168152602001908152602001600020546104706113d1565b61047a9190611a0e565b600960008673ffffffffffffffffffffffffffffffffffffffff1673ffffffffffffffffffffffffffffffffffffffff168152602001908152602001600020546104c49190611a42565b6104ce9190611ab3565b6104d89190611ae4565b9050919050565b60086020528060005260406000206000915090505481565b6000600260019054906101000a900473ffffffffffffffffffffffffffffffffffffffff1673ffffffffffffffffffffffffffffffffffffffff166370a08231306040518263ffffffff1660e01b815260040161055491906119c4565b602060405180830381865afa158015610571573d6000803e3d6000fd5b505050506040513d601f19601f820116820180604052508101906105959190611b2d565b905090565b60096020528060005260406000206000915090505481565b6105ba6114ed565b6105c261153c565b336105cb6113d1565b600681905550436005819055506105e1816103dd565b600860008373ffffffffffffffffffffffffffffffffffffffff1673ffffffffffffffffffffffffffffffffffffffff16815260200190815260200160002081905550600654600760008373ffffffffffffffffffffffffffffffffffffffff1673ffffffffffffffffffffffffffffffffffffffff16815260200190815260200160002081905550600082116106ad576040517f08c379a00000000000000000000000000000000000000000000000000000000081526004016106a490611bb7565b60405180910390fd5b81600960003373ffffffffffffffffffffffffffffffffffffffff1673ffffffffffffffffffffffffffffffffffffffff16815260200190815260200160002054101561072f576040517f08c379a000000000000000000000000000000000000000000000000000000000815260040161072690611c23565b60405180910390fd5b81600960003373ffffffffffffffffffffffffffffffffffffffff1673ffffffffffffffffffffffffffffffffffffffff168152602001908152602001600020600082825461077e9190611a0e565b92505081905550600260019054906101000a900473ffffffffffffffffffffffffffffffffffffffff1673ffffffffffffffffffffffffffffffffffffffff1663a9059cbb33846040518363ffffffff1660e01b81526004016107e2929190611c43565b6020604051808303816000875af1158015610801573d6000803e3d6000fd5b505050506040513d601f19601f820116820180604052508101906108259190611c98565b610864576040517f08c379a000000000000000000000000000000000000000000000000000000000815260040161085b90611d11565b60405180910390fd5b3373ffffffffffffffffffffffffffffffffffffffff167f92ccf450a286a957af52509bc1c9939d1a6a481783e142e41e2499f0bb66ebc683426040516108ac929190611d31565b60405180910390a2506108bd611586565b50565b6108c861158f565b60006108d26113d1565b600681905550436005819055506108e8816103dd565b600860008373ffffffffffffffffffffffffffffffffffffffff1673ffffffffffffffffffffffffffffffffffffffff16815260200190815260200160002081905550600654600760008373ffffffffffffffffffffffffffffffffffffffff1673ffffffffffffffffffffffffffffffffffffffff16815260200190815260200160002081905550600082116109b4576040517f08c379a00000000000000000000000000000000000000000000000000000000081526004016109ab90611dcc565b60405180910390fd5b600360009054906101000a900473ffffffffffffffffffffffffffffffffffffffff1673ffffffffffffffffffffffffffffffffffffffff166323b872dd3330856040518463ffffffff1660e01b8152600401610a1393929190611dec565b6020604051808303816000875af1158015610a32573d6000803e3d6000fd5b505050506040513d601f19601f82011682018060405250810190610a569190611c98565b610a95576040517f08c379a0000000000000000000000000000000000000000000000000000000008152600401610a8c90611e6f565b60405180910390fd5b7fde88a922e0d3b88b24e9623efeb464919c6bf9f66857a65e2bfcf2ce87a9433d82604051610ac49190611891565b60405180910390a15050565b610ad86114ed565b610ae061153c565b33610ae96113d1565b60068190555043600581905550610aff816103dd565b600860008373ffffffffffffffffffffffffffffffffffffffff1673ffffffffffffffffffffffffffffffffffffffff16815260200190815260200160002081905550600654600760008373ffffffffffffffffffffffffffffffffffffffff1673ffffffffffffffffffffffffffffffffffffffff168152602001908152602001600020819055506000600860003373ffffffffffffffffffffffffffffffffffffffff1673ffffffffffffffffffffffffffffffffffffffff16815260200190815260200160002054905060008111610c0f576040517f08c379a0000000000000000000000000000000000000000000000000000000008152600401610c0690611edb565b60405180910390fd5b6000600860003373ffffffffffffffffffffffffffffffffffffffff1673ffffffffffffffffffffffffffffffffffffffff16815260200190815260200160002081905550600360009054906101000a900473ffffffffffffffffffffffffffffffffffffffff1673ffffffffffffffffffffffffffffffffffffffff1663a9059cbb33836040518363ffffffff1660e01b8152600401610cb1929190611c43565b6020604051808303816000875af1158015610cd0573d6000803e3d6000fd5b505050506040513d601f19601f82011682018060405250810190610cf49190611c98565b610d33576040517f08c379a0000000000000000000000000000000000000000000000000000000008152600401610d2a90611f47565b60405180910390fd5b3373ffffffffffffffffffffffffffffffffffffffff167fd6f2c8500df5b44f11e9e48b91ff9f1b9d81bc496d55570c2b1b75bf65243f518242604051610d7b929190611d31565b60405180910390a25050610d8d611586565b565b610d9761158f565b610d9f61160d565b565b6000600260009054906101000a900460ff16905090565b610dc061158f565b610dca6000611670565b565b600260019054906101000a900473ffffffffffffffffffffffffffffffffffffffff1681565b60045481565b610e0061158f565b610e08611734565b565b60076020528060005260406000206000915090505481565b60008060009054906101000a900473ffffffffffffffffffffffffffffffffffffffff16905090565b610e5361158f565b6000610e5d6113d1565b60068190555043600581905550610e73816103dd565b600860008373ffffffffffffffffffffffffffffffffffffffff1673ffffffffffffffffffffffffffffffffffffffff16815260200190815260200160002081905550600654600760008373ffffffffffffffffffffffffffffffffffffffff1673ffffffffffffffffffffffffffffffffffffffff16815260200190815260200160002081905550816004819055505050565b60055481565b610f156114ed565b610f1d61153c565b33610f266113d1565b60068190555043600581905550610f3c816103dd565b600860008373ffffffffffffffffffffffffffffffffffffffff1673ffffffffffffffffffffffffffffffffffffffff16815260200190815260200160002081905550600654600760008373ffffffffffffffffffffffffffffffffffffffff1673ffffffffffffffffffffffffffffffffffffffff1681526020019081526020016000208190555060008211611008576040517f08c379a0000000000000000000000000000000000000000000000000000000008152600401610fff90611fb3565b60405180910390fd5b81600960003373ffffffffffffffffffffffffffffffffffffffff1673ffffffffffffffffffffffffffffffffffffffff16815260200190815260200160002060008282546110579190611ae4565b92505081905550600260019054906101000a900473ffffffffffffffffffffffffffffffffffffffff1673ffffffffffffffffffffffffffffffffffffffff166323b872dd3330856040518463ffffffff1660e01b81526004016110bd93929190611dec565b6020604051808303816000875af11580156110dc573d6000803e3d6000fd5b505050506040513d601f19601f820116820180604052508101906111009190611c98565b61113f576040517f08c379a00000000000000000000000000000000000000000000000000000000081526004016111369061201f565b60405180910390fd5b3373ffffffffffffffffffffffffffffffffffffffff167f1449c6dd7851abc30abf37f57715f492010519147cc2652fbc38202c18a6ee908342604051611187929190611d31565b60405180910390a250611198611586565b50565b6111a36114ed565b6111ab61153c565b336111b46113d1565b600681905550436005819055506111ca816103dd565b600860008373ffffffffffffffffffffffffffffffffffffffff1673ffffffffffffffffffffffffffffffffffffffff16815260200190815260200160002081905550600654600760008373ffffffffffffffffffffffffffffffffffffffff1673ffffffffffffffffffffffffffffffffffffffff168152602001908152602001600020819055506000600860003373ffffffffffffffffffffffffffffffffffffffff1673ffffffffffffffffffffffffffffffffffffffff168152602001908152602001600020549050600081116112da576040517f08c379a00000000000000000000000000000000000000000000000000000000081526004016112d19061208b565b60405180910390fd5b6000600860003373ffffffffffffffffffffffffffffffffffffffff1673ffffffffffffffffffffffffffffffffffffffff1681526020019081526020016000208190555080600960003373ffffffffffffffffffffffffffffffffffffffff1673ffffffffffffffffffffffffffffffffffffffff168152602001908152602001600020600082825461136e9190611ae4565b925050819055503373ffffffffffffffffffffffffffffffffffffffff167f820cea42e8517cf1ec6d4e9db93909255f07c45f7eb0a7c7b5a0f8bdcfc2e5bf82426040516113bd929190611d31565b60405180910390a250506113cf611586565b565b6000806113dc6104f7565b036113eb57600654905061143b565b6113f36104f7565b670de0b6b3a76400006004546005544361140d9190611a0e565b6114179190611a42565b6114219190611a42565b61142b9190611ab3565b6006546114389190611ae4565b90505b90565b60065481565b61144c61158f565b600073ffffffffffffffffffffffffffffffffffffffff168173ffffffffffffffffffffffffffffffffffffffff16036114bb576040517f08c379a00000000000000000000000000000000000000000000000000000000081526004016114b29061211d565b60405180910390fd5b6114c481611670565b50565b600360009054906101000a900473ffffffffffffffffffffffffffffffffffffffff1681565b600260015403611532576040517f08c379a000000000000000000000000000000000000000000000000000000000815260040161152990612189565b60405180910390fd5b6002600181905550565b611544610da1565b15611584576040517f08c379a000000000000000000000000000000000000000000000000000000000815260040161157b906121f5565b60405180910390fd5b565b60018081905550565b611597611797565b73ffffffffffffffffffffffffffffffffffffffff166115b5610e22565b73ffffffffffffffffffffffffffffffffffffffff161461160b576040517f08c379a000000000000000000000000000000000000000000000000000000000815260040161160290612261565b60405180910390fd5b565b61161561179f565b6000600260006101000a81548160ff0219169083151502179055507f5db9ee0a495bf2e6ff9c91a7834c1ba4fdd244a5e8aa4e537bd38aeae4b073aa611659611797565b60405161166691906119c4565b60405180910390a1565b60008060009054906101000a900473ffffffffffffffffffffffffffffffffffffffff169050816000806101000a81548173ffffffffffffffffffffffffffffffffffffffff021916908373ffffffffffffffffffffffffffffffffffffffff1602179055508173ffffffffffffffffffffffffffffffffffffffff168173ffffffffffffffffffffffffffffffffffffffff167f8be0079c531659141344cd1fd0a4f28419497f9722a3daafe3b4186f6b6457e060405160405180910390a35050565b61173c61153c565b6001600260006101000a81548160ff0219169083151502179055507f62e78cea01bee320cd4e420270b5ea74000d11b0c9f74754ebdbfc544b05a258611780611797565b60405161178d91906119c4565b60405180910390a1565b600033905090565b6117a7610da1565b6117e6576040517f08c379a00000000000000000000000000000000000000000000000000000000081526004016117dd906122cd565b60405180910390fd5b565b600080fd5b600073ffffffffffffffffffffffffffffffffffffffff82169050919050565b6000611818826117ed565b9050919050565b6118288161180d565b811461183357600080fd5b50565b6000813590506118458161181f565b92915050565b600060208284031215611861576118606117e8565b5b600061186f84828501611836565b91505092915050565b6000819050919050565b61188b81611878565b82525050565b60006020820190506118a66000830184611882565b92915050565b6118b581611878565b81146118c057600080fd5b50565b6000813590506118d2816118ac565b92915050565b6000602082840312156118ee576118ed6117e8565b5b60006118fc848285016118c3565b91505092915050565b60008115159050919050565b61191a81611905565b82525050565b60006020820190506119356000830184611911565b92915050565b6000819050919050565b600061196061195b611956846117ed565b61193b565b6117ed565b9050919050565b600061197282611945565b9050919050565b600061198482611967565b9050919050565b61199481611979565b82525050565b60006020820190506119af600083018461198b565b92915050565b6119be8161180d565b82525050565b60006020820190506119d960008301846119b5565b92915050565b7f4e487b7100000000000000000000000000000000000000000000000000000000600052601160045260246000fd5b6000611a1982611878565b9150611a2483611878565b9250828203905081811115611a3c57611a3b6119df565b5b92915050565b6000611a4d82611878565b9150611a5883611878565b9250828202611a6681611878565b91508282048414831517611a7d57611a7c6119df565b5b5092915050565b7f4e487b7100000000000000000000000000000000000000000000000000000000600052601260045260246000fd5b6000611abe82611878565b9150611ac983611878565b925082611ad957611ad8611a84565b5b828204905092915050565b6000611aef82611878565b9150611afa83611878565b9250828201905080821115611b1257611b116119df565b5b92915050565b600081519050611b27816118ac565b92915050565b600060208284031215611b4357611b426117e8565b5b6000611b5184828501611b18565b91505092915050565b600082825260208201905092915050565b7f43616e6e6f742077697468647261772030000000000000000000000000000000600082015250565b6000611ba1601183611b5a565b9150611bac82611b6b565b602082019050919050565b60006020820190508181036000830152611bd081611b94565b9050919050565b7f496e73756666696369656e742062616c616e6365000000000000000000000000600082015250565b6000611c0d601483611b5a565b9150611c1882611bd7565b602082019050919050565b60006020820190508181036000830152611c3c81611c00565b9050919050565b6000604082019050611c5860008301856119b5565b611c656020830184611882565b9392505050565b611c7581611905565b8114611c8057600080fd5b50565b600081519050611c9281611c6c565b92915050565b600060208284031215611cae57611cad6117e8565b5b6000611cbc84828501611c83565b91505092915050565b7f5769746864726177207472616e73666572206661696c65640000000000000000600082015250565b6000611cfb601883611b5a565b9150611d0682611cc5565b602082019050919050565b60006020820190508181036000830152611d2a81611cee565b9050919050565b6000604082019050611d466000830185611882565b611d536020830184611882565b9392505050565b7f52657761726420616d6f756e742073686f756c6420626520677265617465722060008201527f7468616e20300000000000000000000000000000000000000000000000000000602082015250565b6000611db6602683611b5a565b9150611dc182611d5a565b604082019050919050565b60006020820190508181036000830152611de581611da9565b9050919050565b6000606082019050611e0160008301866119b5565b611e0e60208301856119b5565b611e1b6040830184611882565b949350505050565b7f5472616e73666572206661696c65640000000000000000000000000000000000600082015250565b6000611e59600f83611b5a565b9150611e6482611e23565b602082019050919050565b60006020820190508181036000830152611e8881611e4c565b9050919050565b7f4e6f2072657761726420617661696c61626c6500000000000000000000000000600082015250565b6000611ec5601383611b5a565b9150611ed082611e8f565b602082019050919050565b60006020820190508181036000830152611ef481611eb8565b9050919050565b7f526577617264207472616e73666572206661696c656400000000000000000000600082015250565b6000611f31601683611b5a565b9150611f3c82611efb565b602082019050919050565b60006020820190508181036000830152611f6081611f24565b9050919050565b7f43616e6e6f74207374616b652030000000000000000000000000000000000000600082015250565b6000611f9d600e83611b5a565b9150611fa882611f67565b602082019050919050565b60006020820190508181036000830152611fcc81611f90565b9050919050565b7f5374616b65207472616e73666572206661696c65640000000000000000000000600082015250565b6000612009601583611b5a565b915061201482611fd3565b602082019050919050565b6000602082019050818103600083015261203881611ffc565b9050919050565b7f4e6f2072657761726420617661696c61626c6520746f20636f6d706f756e6400600082015250565b6000612075601f83611b5a565b91506120808261203f565b602082019050919050565b600060208201905081810360008301526120a481612068565b9050919050565b7f4f776e61626c653a206e6577206f776e657220697320746865207a65726f206160008201527f6464726573730000000000000000000000000000000000000000000000000000602082015250565b6000612107602683611b5a565b9150612112826120ab565b604082019050919050565b60006020820190508181036000830152612136816120fa565b9050919050565b7f5265656e7472616e637947756172643a207265656e7472616e742063616c6c00600082015250565b6000612173601f83611b5a565b915061217e8261213d565b602082019050919050565b600060208201905081810360008301526121a281612166565b9050919050565b7f5061757361626c653a2070617573656400000000000000000000000000000000600082015250565b60006121df601083611b5a565b91506121ea826121a9565b602082019050919050565b6000602082019050818103600083015261220e816121d2565b9050919050565b7f4f776e61626c653a2063616c6c6572206973206e6f7420746865206f776e6572600082015250565b600061224b602083611b5a565b915061225682612215565b602082019050919050565b6000602082019050818103600083015261227a8161223e565b9050919050565b7f5061757361626c653a206e6f7420706175736564000000000000000000000000600082015250565b60006122b7601483611b5a565b91506122c282612281565b602082019050919050565b600060208201905081810360008301526122e6816122aa565b905091905056fea2646970667358221220b018b0a2dc48bb9a2c262521aaa87a4bbd0b373ba6046df8cd28c0e89a9000c064736f6c63430008180033",
  "linkReferences": {},
  "deployedLinkReferences": {}
}